:020000040800F2
:10000000D008002029020008531F0008AD1D000879
:10001000511F000863040008B52600080000000016
:10002000000000000000000000000000571F000852
:100030007104000800000000551F0008412000085E
:10004000430200084302000843020008430200087C
:10005000430200084302000843020008430200086C
:10006000430200084302000843020008430200085C
:10007000430200084302000843020008430200084C
:10008000430200084302000843020008430200083C
:100090006504000843020008430200084302000808
:1000A000430200084302000843020008430200081C
:1000B000430200084302000843020008430200080C
:1000C00043020008430200084302000843020008FC
:1000D000430200089D260008A926000843020008E4
:1000E00043020008430200084302000843020008DC
:1000F00043020008430200084302000843020008CC
:1001000043020008430200084302000843020008BB
:1001100043020008430200084302000843020008AB
:10012000430200084302000843020008430200089B
:100130004302000800000000000000004302000825
:10014000430200084302000843020008430200087B
:10015000430200084302000843020008430200086B
:10016000430200084302000843020008430200085B
:1001700043020008430200080000000000000000E5
:10018000430200084302000800F002F800F03CF8C7
:100190000AA090E8000C82448344AAF10107DA45E2
:1001A00001D100F031F8AFF2090EBAE80F0013F0F8
:1001B000010F18BFFB1A43F0010318470C2700007A
:1001C0002C270000103A24BF78C878C1FAD852070B
:1001D00024BF30C830C144BF04680C6070470000C1
:1001E0000023002400250026103A28BF78C1FBD840
:1001F000520728BF30C148BF0B6070471FB502F0DF
:1002000052FB1FBD10B510BD00F0F1F81146FFF70D
:10021000F5FF02F061FA00F00FF903B4FFF7F2FF07
:1002200003BC00F017F9000009488047094800475F
:10023000FEE7FEE7FEE7FEE7FEE7FEE7FEE7FEE796
:10024000FEE7FEE704480549054A064B70470000F3
:10025000DD20000889010008D0020020D00800201D
:10026000D0040020D004002053EA020C00F0698082
:100270002DE9F04B4FF00006002B1FBFB3FA83F5BA
:1002800003FA05F424FA05F65E4012BF1643B2FAEB
:1002900082F502FA05F4C5F120051EBF22FA05FC1D
:1002A00044EA0C04203556EA044C4FEA144418BFC3
:1002B000641C4FF000084FF00009904271EB030CF2
:1002C00039D3002919BFB1FA81F701FA07F6B0FA5C
:1002D00080F700FA07F6C7F120071EBF20FA07FCD7
:1002E00046EA0C062037B6FBF4FCA7EB0507103FE7
:1002F00007F01F0BCBF120060CFA0BFB2CFA06F6CD
:1003000044BFB3460026202FA4BF5E464FF0000B2B
:100310005BEA060C08BF4FF0010B19EB0B09ABFBB6
:10032000027C48EB0608C01B06FB02CC0BFB03CC8F
:1003300071EB0C01C1E70B46024641464846BDE859
:10034000F08B13B54FF000004FF00001AFF30080C9
:10035000BDE81C4070474FF000020429C0F0128035
:1003600010F0030C00F01B80CCF1040CBCF1020F68
:1003700018BF00F8012BA8BF20F8022BA1EB0C013D
:1003800000F00DB85FEAC17C24BF00F8012B00F833
:10039000012B48BF00F8012B70474FF0000200B559
:1003A000134694469646203922BFA0E80C50A0E898
:1003B0000C50B1F12001BFF4F7AF090728BFA0E846
:1003C0000C5048BF0CC05DF804EB890028BF40F812
:1003D000042B08BF704748BF20F8022B11F0804F54
:1003E00018BF00F8012B704770477047704775467B
:1003F00000F02CF8AE4605006946534620F0070091
:10040000854618B020B5FFF71DFFBDE820404FF02E
:1004100000064FF000074FF000084FF0000B21F0EE
:100420000701AC46ACE8C009ACE8C009ACE8C009BB
:10043000ACE8C0098D46704710B50446AFF30080A4
:100440002046BDE81040FFF7E8BE000000487047B6
:100450006C02002001491820ABBEFEE72600020016
:100460007047FEE7014800F08BB800002C00002028
:10047000704790F82020012A07D0022A05D0416A4F
:1004800041F48021416201207047006842690A43BB
:10049000426100207047704730B590F82040012C31
:1004A00005D0022C03D0416A41F480215DE004684C
:1004B000002955D02469A40754D04FF4D874056896
:1004C00004EB01142D5915F00405956005682D59AC
:1004D0004ED0ED08556005682C5904F00204D46034
:1004E0004FF4DA74056804EB01142D5905F00F057B
:1004F000156105682D59C5F30725956105682C59C7
:10050000240C54614FF4DC72046802EB0112A4580D
:100510001C700468A458240A5C700468A458240C55
:100520009C700468A258120EDA704FF4DE720468F0
:1005300002EB0112A4581C710468A458240A5C71CF
:100540000468A458240C9C710468A258120EDA7135
:10055000006881B1016941F020010161002030BDD6
:10056000E468A8E7416A41F400114162012030BD0E
:100570006D0D1560AFE7C16841F02001C160EDE786
:100580002DE9F05F0546006800244669D0F8049024
:100590008768D0F80CB0D0F810A0D0F81880F10718
:1005A00048D0F90714D001218160B80703D5284647
:1005B00000F069FA0CE0780702D54FF4006407E018
:1005C000380702D54FF4805402E0284600F05AFA6A
:1005D000F80516D529684FF480708860B80503D5F2
:1005E000284600F052FA0CE0780502D544F4005495
:1005F00007E0380502D544F4804402E0284600F0C4
:1006000043FAF80316D529684FF480308860B803A0
:1006100003D5284600F03BFA0CE0780302D544F4F9
:10062000004407E0380302D544F4803402E0284651
:1006300000F02CFA300707D55FEACB6004D52968B3
:10064000102044F40074C86070074FF0080707D505
:100650005FEA0B7004D52868C760284600F05AF995
:10066000B00706D52868C068800702D0284600F089
:1006700053F9700607D55FEACA6004D529681020CF
:1006800044F480640861B00607D55FEA0A7004D5B7
:1006900028680761284600F0C5F9F00606D52868E5
:1006A0000069800702D0284600F0BDF9B00308D5E4
:1006B0005FEAC96005D5296810204860284600F027
:1006C000B3F9F00307D55FEA097004D528684760DD
:1006D000284600F0DDF9300446D55FEA497040D580
:1006E000F00504D55FEAC87001D044F00104B005FC
:1006F00004D55FEA887001D544F00204700504D582
:100700005FEA487001D544F00404300529D518F09B
:10071000700F26D008F07000402815D006DC102895
:1007200009D020280AD0302816D10AE050280ED04F
:10073000602811D10EE044F008040DE044F01004EC
:100740000AE044F0200407E044F0400404E044F0F0
:10075000800401E044F480742868816921F070010C
:100760008161296804204860002C05D0686A204314
:1007700068622846FFF78FFEBDE8F09F70B5040061
:1007800003D094F8200010B104E0012070BD204691
:1007900000F082F82068016841F00101016000F07A
:1007A000DDFA0546052604E000F0D8FA401B0A28C9
:1007B00011D820684068C007F6D02068016821F091
:1007C0000201016000F0CAFA05460BE000F0C6FA2B
:1007D000401B0A2806D9606A40F40030606284F841
:1007E0002060D2E7206840688007EFD4207E01288F
:1007F000206801683DD021F080010160607E012801
:100800002068016838D021F040010160A07E0128F5
:100810002068016833D021F020010160E07E0128CA
:10082000206801682ED041F010010160207F01286E
:100830002068016829D021F008010160607F01284B
:100840002068016824D021F004010160D4E902018C
:100850000843D4E90412114308436168491E084360
:100860002168C86100206062012084F82000002017
:1008700070BD41F08001C0E741F04001C5E741F0A3
:100880002001CAE721F01001CFE741F00801D4E7C9
:1008900041F00401D9E7000010B586B004461421E8
:1008A0006846FFF77AFD18492068884229D1174821
:1008B000016841F000710160006800F0007005906F
:1008C00012481038016841F0010101600068694672
:1008D00000F0010005904FF4C050009002200190FC
:1008E000012002900320039009200490084800F0A2
:1008F0003DF900221146142000F09EFA142000F069
:100900008DFA06B010BD000000640040403802407F
:10091000000002407047000000B58BB06B4602AA91
:100920000021FFF7B9FD002819D10298A0F5007148
:10093000013916D0A0F50071023910D1BDF80000C0
:1009400041BA28480180BDF8021049BA4180BDF87B
:10095000041049BA8180BDF8061049BAC1800BB0B5
:1009600000BD9DF80000204A00F0010111701F4AEF
:10097000C0F3400111701E4AC0F3800111701D4A7E
:10098000C0F3C00111701C4AC0F3001111701B4A62
:10099000C0F3401111701A4AC0F38011C0091170E0
:1009A0001849194A08709DF8010000F00101117002
:1009B000164AC0F340011170154AC0F3800111704E
:1009C000144AC0F3C0011170134AC0F30011117032
:1009D000124AC0F34011C0F3801011701049087022
:1009E000BDE70000100000200000002001000020F2
:1009F0000200002003000020040000200500002069
:100A00000600002007000020080000200900002048
:100A10000A0000200B0000200C0000200D00002028
:100A20000E000020704770477047000070B5044604
:100A300090F82000012804D0606A40F40020606231
:100A400018E0022084F820002068016821F00101EC
:100A5000016000F083F905460EE000BF00F07EF96A
:100A6000401B0A2808D9606A40F400306062052003
:100A700084F82000012070BD20684068C007EDD1D7
:100A8000606270BD7047704770477047704770472D
:100A900070472DE9F0410446876D00F05FF9064686
:100AA00094F835000025022806D08020606584F87F
:100AB00034500120BDE8F0812068016821F0160162
:100AC00001602068416921F080014161206C08B912
:100AD000A06C20B12068016821F008010160206845
:100AE000016821F0010101600CE000F037F9801B82
:100AF000052807D920206065032084F8350084F894
:100B00003450D7E720680068C007EED194F85C1035
:100B10003F208840B860012084F8350084F83450C4
:100B20000020C7E790F83510022903D080214165E5
:100B300001207047052180F835100068016821F018
:100B4000010101600020704770B5044600F006F90D
:100B50000546601C02D004480078044400F0FEF80A
:100B6000401BA042FAD370BD180000202DE9F84FB9
:100B7000DFF8BCA10022012503264FF00F090AF17E
:100B8000040BAAF1040E00BF0B6805FA02F423401F
:100B9000A34270D10F7907F00307012F01D0022F74
:100BA00016D187684FEA420806FA08FC27EA0C07C4
:100BB000D1F80CC00CFA08FC4CEA070CC0F808C0CD
:100BC0004768A7430C79C4F3001494403C43446045
:100BD0000C79E443A4070AD0C4684FEA420C06FA31
:100BE0000CF7BC438F6807FA0CF72743C7600C79F2
:100BF00004F00304022C12D1D40800EB840CDCF8BE
:100C000020405707FF0E09FA07F824EA0804D1F834
:100C1000108008FA07F848EA0408CCF82080046835
:100C20004FEA420C06FA0CF7BC430F7907F00307B2
:100C300007FA0CF7274307604C6814F4403F70D064
:100C40003C4C276847F480472760246822F003075C
:100C500004F480440094384C07EB040CDCF808489A
:100C600097074FEA177809FA08F7BC43334FB842A1
:100C700002D1002724E054E0314FB84201D10127CE
:100C80001EE0304FB84201D1022719E02E4FB84282
:100C900001D1032714E02D4FB84201D104270FE002
:100CA0002B4FB84201D105270AE02A4FB84201D1A3
:100CB000062705E0284FB84201D1072700E00827A2
:100CC00007FA08F72743CCF80878DAF800405746C7
:100CD000D1F804C09C435FEACC2C00D51C433C6097
:100CE000DBF800405F46D1F804C09C435FEA8C2CDF
:100CF00000D51C433C60DEF800407746D1F804C0C4
:100D00009C435FEA8C3C00D51C433C60084F083F85
:100D10003C68D1F804C09C435FEACC3C00D51C433E
:100D20003C60521C102AFFF42FAFBDE8F88F000082
:100D3000083C0140443802400030014000000240BD
:100D40000004024000080240000C02400010024073
:100D50000014024000180240001C02400148806854
:100D60007047000018000020024881680278114492
:100D700081607047180000200B4810B5016841F4ED
:100D800000710160016841F480610160016841F413
:100D900080710160032000F06FF80F2000F006F86A
:100DA00000F024F8002010BD003C024070B50D4D4D
:100DB00004464FF47A712878B1FBF0F00A490968CB
:100DC000B1FBF0F000F00AFB48B9102C07D200226A
:100DD0002146501E00F030F800206C6070BD0120EC
:100DE00070BD000018000020240000200A4808B54B
:100DF000016841F480410160006800F48040009087
:100E00000548001F016841F080510160006800F052
:100E10008050009008BD000044380240002809DBE3
:100E200000F01F02012191404009800000F1E02004
:100E3000C0F8001170470000F0B40E4B1B680C4660
:100E4000C3F30223C3F10705042D00D90425191D9E
:100E5000072901D2002300E0DB1E012606FA05F176
:100E6000491E214099409E40761E16403143F0BCF9
:100E700001F021BC0CED00E0064900F00702086813
:100E80004FF6FF03184040EA0220034A104308606F
:100E9000704700000CED00E00000FA052DE9F04776
:100EA0000E46050065D0DFF81481D8F80000F7B2CF
:100EB00000F00700B04207D288F80070D8F80000B0
:100EC00000F00700B04254D128683D4C810712D58C
:100ED000400703D5206840F4E050206028780007E0
:100EE00003D5206840F4604020602068A96820F0A5
:100EF000F000084320602878C0072DD0304968688A
:100F00000839012812D0022813D0032811D009680B
:100F1000890700292DDA216821F0030101432160AE
:100F2000FFF71CFF814641F2883A0EE00968890309
:100F3000EFE709688901ECE7FFF710FFA0EB090173
:100F4000514502D90320BDE8F0872068696800F0A8
:100F50000C00B0EB810FEFD1D8F80010404601F043
:100F60000701B14207D90770006800F00700B042DE
:100F700001D00120E7E72878400705D52068E96817
:100F800020F4E050084320602878000706D5206848
:100F9000296920F4604040EAC100206000F038F880
:100FA0002168084AC1F30311515CC8400649086032
:100FB00006480068FFF7FAFE0020C4E7003C024044
:100FC00008380240B0280008240000201C0000203F
:100FD0000448054900680968044AC1F38221515C4C
:100FE000C84070472400002008380240C02800088C
:100FF0000448054900680968044AC1F34231515C5C
:10100000C84070472400002008380240C02800086B
:10101000154810B5006810F00C02144813D04110A8
:10102000042A0FD0082A0ED10F4C241F22682368EF
:1010300002F03F025B0207D52068C0F38810A0FBD6
:10104000010106E0084610BD2168C1F38811A1FB2B
:1010500000010023FFF708F92168C1F30141491C91
:101060004900B0FBF1F010BD083802400024F40044
:101070002DE9F84F04006ED02078DFF84C93C007BC
:10108000A9F104054AD009F104000168C1F3810106
:10109000012908D00068C0F3810002280AD1D9F8DC
:1010A0000000400206D52868800337D56068002814
:1010B000E1D033E06068B0F5803F10D0B0F5A02FEC
:1010C000286810D020F480302860286820F4802020
:1010D00028606068A8B1FFF741FE06460DE0286869
:1010E00040F48030F4E740F480202860F7E700BF48
:1010F000FFF734FE801B642873D828688003F7D577
:101100000CE0FFF72BFE064605E000BFFFF726FECA
:10111000801B6428F0D828688003F7D42078DFF893
:10112000AC8280074FF0000A3ED5A748001D016839
:1011300011F00C0F08D00068C0F3810002280BD119
:10114000D9F80000400207D42868800716D5E06867
:10115000012800D112E033E1E068B8B10120C8F8FD
:101160000000FFF7FBFD064605E000BFFFF7F6FDB8
:10117000801B0228C0D828688007F7D52868216915
:1011800020F0F80040EAC10028600DE0C8F800A097
:10119000FFF7E4FD064604E0FFF7E0FD801B0228B0
:1011A0001FD828688007F7D42078000722D5864FFB
:1011B00087486169703771B101210160FFF7CEFD89
:1011C000064604E0FFF7CAFD801B022809D83868EC
:1011D0008007F7D50EE0C0F800A0FFF7BFFD064678
:1011E00005E082E0FFF7BAFD801B02287DD8386851
:1011F0008007F7D42078400768D5DFF8CCB1002706
:101200000BF13C0BDBF80000C0000BD4DBF8001046
:1012100041F08051CBF80010DBF80000012700F00E
:10122000805000906B4E3068C00510D4306840F498
:1012300080703060FFF792FD009005E0FFF78EFDB3
:101240000099401A022850D83068C005F6D55E4E85
:10125000A0686C3601280FD00528306810D020F027
:1012600001003060306820F004003060A068B8B140
:10127000FFF774FD00900FE0306840F00100F4E7E4
:1012800040F004003060F7E7FFF768FD0099411A6D
:1012900041F28830814266D830688007F4D50EE08C
:1012A000FFF75CFD009007E0FFF758FD0099411A39
:1012B00041F28830814256D830688007F4D42FB18B
:1012C000DBF8001021F08051CBF80010A069C8B302
:1012D0003D49091D0968C1F3810102294AD002284C
:1012E000504607D0C8F8600000E03CE0FFF736FD4C
:1012F00004463BE04746C8F86000FFF72FFD06466E
:1013000005E000BFFFF72AFD801B02282BD82868C4
:101310008001F7D4D4E907010843A16A2E4A49089D
:1013200002EB0141626A41EA8211084394F82C10F1
:1013300040EA0161C9F8001001203866FFF70EFD90
:10134000044606E03EE000BFFFF708FD001B022850
:1013500009D828688001F7D534E000BFFFF7FEFC0C
:10136000001B022802D90320BDE8F88F28688001FD
:10137000F4D427E00128F7D0D9F80000E26900F49E
:10138000800191421CD1226A00F03F01914217D1A5
:1013900047F6C071626A0140B1EB821F10D1A26AA8
:1013A0004FF0FF3300F4403103EB5202B1EB024F38
:1013B00006D194F82C1000F07060B0EB016F01D0F2
:1013C0000120D1E70020CFE7043802400000474267
:1013D000800E4742007000400000FFFF10B5401E25
:1013E000B0F1807F01D3012010BD4FF0E024606197
:1013F0000F21601701F05FF90020A0610720206134
:10140000002010BD70B590F83C20012A32D0012494
:1014100080F83C40022280F83D2003685A689D68AD
:1014200022F070060A6832435A60134B02689A42EF
:1014300014D0B2F1804F11D0104B9A420ED0104B05
:101440009A420BD00F4B9A4208D00F4B9A4205D0CC
:101450000E4B9A4202D00E4B9A4204D1496825F0B5
:1014600080031943916080F83D40002180F83C10D2
:10147000084670BD022070BD00000140000400401D
:1014800000080040000C0040000401400040014002
:101490000018004010B5040003D094F83D0010B1CE
:1014A00007E0012010BD002084F83C00204600F039
:1014B0001FF8022084F83D00211D206800F016FE70
:1014C000012084F8460084F83E0084F83F0084F848
:1014D000400084F8410084F8420084F8430084F816
:1014E000440084F8450084F83D00002010BD000051
:1014F00008B50C4A01680C48914207D1016841F0D7
:1015000004010160006800F0040009E0074A91420C
:1015100007D1016841F008010160006800F008008F
:10152000009008BD0008004040380240000C004018
:1015300090F83D10012901D001207047022180F868
:101540003D1000681149884214D0B0F1804F11D08D
:101550000F4988420ED00F4988420BD00E4988426D
:1015600008D00E49884205D00D49884202D00D4965
:10157000884204D1816801F00701062903D001687F
:1015800041F00101016000207047000000000140AF
:101590000004004000080040000C0040000401402E
:1015A000004001400018004070B5044690F83C002F
:1015B0000025012817D0012684F83C60022084F819
:1015C0003D002068826822F0770222F47F42826028
:1015D0000868502838D00DDC20284FD005DC90B3A7
:1015E000102811D14AE0022070BD302846D0402892
:1015F0000AD13BE060282FD070280DD0B0F5805F75
:1016000003D0B0F5005F12D0012584F83D600020C2
:1016100084F83C00284670BDCB68D1E901212068E0
:1016200000F0D5FD2068816841F0770109E0CB68C2
:10163000D1E90121206800F0CAFD2068816841F4E9
:1016400080418160E1E719E0CA684968206800F0DC
:1016500093FE5021206806E0CA684968206800F0BF
:101660009CFE6021206800F0BCFDCEE7CA68496896
:10167000206800F081FE40212068F4E722680146DE
:101680001046F0E710B586B0044614216846FEF710
:1016900084FE2368164C002116480222A34210D172
:1016A000036843F002030360006800F00200059045
:1016B000C0200090CDE90121CDE9031269460E4812
:1016C00012E00E4CA34211D1036843F00103036002
:1016D000006800F00100059003200090CDE9012191
:1016E000CDE9031269460648FFF740FA06B010BD7F
:1016F000000800403038024000040240000C004066
:101700000000024070B5044690F83C0000260D46EB
:1017100001280FD0012084F83C006AB1042A1DD0B2
:10172000082A2FD00C2A3FD00126002084F83C0044
:10173000304670BD022070BD206800F05BFD20685F
:10174000816941F0080181612068816921F004010B
:101750008161206881692A69114311E0206800F0E5
:1017600079FD2068816941F40061816120688169A7
:1017700021F480618161206881692A6941EA02213E
:101780008161D2E7206800F09BFD2068C16941F0CB
:101790000801C1612068C16921F00401C1612068AC
:1017A000C1692A69114311E0206800F0BDFD20687D
:1017B000C16941F40061C1612068C16921F480619F
:1017C000C1612068C1692A6941EA0221C161ACE7AF
:1017D00010B5040003D094F83D0010B107E00120DB
:1017E00010BD002084F83C00204600F01EF80220C6
:1017F00084F83D00211D206800F078FC012084F869
:10180000460084F83E0084F83F0084F8400084F8E5
:10181000410084F8420084F8430084F8440084F8CE
:10182000450084F83D00002010BD704710B5044607
:10183000022249B104290ED0082913D094F841009E
:10184000012816D0012010BD94F83E000128F9D1DE
:1018500084F83E200FE094F83F000128F2D184F88C
:101860003F2008E094F840000128EBD184F84020A4
:1018700001E084F841200122206800F09BFC164919
:101880002068164A884201D0904203D1436C43F449
:10189000004343642068884213D0B0F1804F10D0D9
:1018A0000F4988420DD00F4988420AD00E4988421C
:1018B00007D0904205D00D49884202D00C49884299
:1018C00004D1816801F00701062903D0016841F0C5
:1018D00001010160002010BD000001400004014032
:1018E0000004004000080040000C0040004001409F
:1018F0000018004070477047F8B501680446086852
:10190000CA684B6910F00F0F4FF0000559D003F073
:10191000010602F49077374365D0C10705D0D105A1
:1019200003D5216C41F001012164410705D5D90798
:1019300003D0216C41F002012164810705D5D9074C
:1019400003D0216C41F004012164010707D502F0A6
:101950002001314303D0216C41F008012164216C46
:1019600000293AD0800604D5900602D5204600F022
:1019700055FD20684069216CC0F38010090700D430
:1019800060B3204600F023FD20684069400621D561
:101990002068143050E8001F21F0400140E8001298
:1019A000002AF5D1A06BA8B16C490165A06BFFF7C7
:1019B000B9F8002811D0A06B016D01B0BDE8F0406E
:1019C000084783060FD593060DD52046BDE8F8409D
:1019D00000F024BD2046FFF78EFFF8BD2046FFF73C
:1019E0008AFF2564F8BD266B2023012E79D1C60617
:1019F00077D5D60675D508684868009048694006CE
:101A000040D5A16B086840680004000CEAD0A28DA4
:101A10008242E7D9E085C869B0F5807F2DD0206883
:101A20000C3050E8001F21F4807140E80012002AB9
:101A3000F5D12068143050E8001F21F0010140E882
:101A40000012002AF5D12068143050E8001F21F060
:101A5000400140E80012002AF5D184F83E302563A9
:101A600020680C3050E8001F21F0100140E80012FF
:101A7000002AF5D1A06BFFF70CF8A08DE18D401A7C
:101A800081B229E0A08DE18D401A81B2E08D00285D
:101A9000A8D00029A6D020680C3050E8002F22F4EE
:101AA000907240E80026002EF5D12068143050E8EE
:101AB000002F22F0010240E80026002EF5D184F824
:101AC0003E30256320680C3050E8002F22F01002D1
:101AD00040E80023002BF5D12046FFF70BFFF8BDAF
:101AE000FFE705062BD5150629D594F83D002128DA
:101AF000F5D1A068B0F5805F01D12069B0B1206A4E
:101B0000411C2162216800784860E08C401E00047E
:101B1000000CE084E3D12068C16821F08001C1603D
:101B20002068C16841F04001C160D8E7206A0088A0
:101B3000C0F308004860206A801C2062E5E7400688
:101B4000CDD55006CBD5CA68204622F04002CA60E7
:101B500084F83D3000F029F9C1E70000BF230008F8
:101B600070B5040004D094F83D00002510B106E0E3
:101B7000012070BD84F83C50204600F023F824205A
:101B800084F83D002068C16821F40051C1602046FE
:101B900000F0A4FC2068016921F4904101612068F3
:101BA000416921F02A0141612068C16841F4005176
:101BB000C1602564202084F83D0084F83E000020A8
:101BC00070BD0000F0B587B0044614216846FEF7EA
:101BD000E4FB2A4F23680022294902240325072613
:101BE0002848BB4221D1264B14331F6847F0100709
:101BF0001F601B6803F0100305930B6843F001039B
:101C00000B60096802AB01F0010105916902CDE9A1
:101C1000001483E864006946FEF7A8FF002211461D
:101C20002520FFF709F9252023E0174FBB4222D1D9
:101C3000134B10331F6847F400371F601B6803F411
:101C4000003305930B6843F001030B60096802AB96
:101C500001F0010105910C21CDE9001483E8640035
:101C60006946FEF783FF002211462620FFF7E4F8BD
:101C70002620FFF7D3F807B0F0BD000000100140A8
:101C800030380240000002400044004090F83E30EE
:101C9000202B0ED159B152B190F83C30012B08D015
:101CA000012380F83C300023036300F09DBC012039
:101CB00070470220704700000C4910B50878FF28D3
:101CC00007D3002008704FF480710948FEF743FBEA
:101CD00004E0074B4A781A54401C0870034901225B
:101CE000BDE81040491C0348FFF7D0BF2800002082
:101CF0006C010020280100202DE9F843044690F8EB
:101D00003D001F4616460D4620284CD1C5B1BEB138
:101D100094F83C00012846D0012084F83C004FF0A4
:101D20000008C4F84080212084F83D00FFF716F831
:101D3000A6848146E684A068B0F5805F03D004E005
:101D40000120BDE8F883206928B12E465FF0000528
:101D500084F83C800EE00026FAE78021204600F05F
:101D600060FCA0B9AEB116F8010B21684860E08CA8
:101D7000401EE084E08C4B464FF0000200970028A4
:101D8000EBD14FF04001204600F04BFC30B1032076
:101D9000D7E735F8020BC0F30800E6E7202084F807
:101DA0003D000020CDE70220CBE77047FEE70000B2
:101DB0000E4810B50C4901600421416000214FF428
:101DC00050228160C0E903124FF4A0024261017603
:101DD00041768176C17601774177FEF7CFFC002806
:101DE00001D072B6FEE710BD006400402C00002058
:101DF00010B58EB000240794089409940A940B94AB
:101E00001C2168460C94FEF7C8FA24482249016058
:101E100040F24731C0E9011440F2CF71C0E9031428
:101E200080218161FFF736FB08B172B6FEE74FF4FF
:101E30008050079007A91948FFF7B6FB08B172B6A2
:101E4000FEE71648FFF7C4FC08B172B6FEE70B9434
:101E50000BA912480C94FFF7D5FA08B172B6FEE749
:101E60007020CDE90004022002900022694604940B
:101E70000A48FFF747FC08B172B6FEE7042269463C
:101E80000648FFF73FFC08B172B6FEE70348FFF7CC
:101E9000F9FB0EB010BD0000000800405400002007
:101EA00010B58EB000240794089409940A940B94FA
:101EB0001C2168460C94FEF770FA24482249016000
:101EC00040F24731C0E9011440F2CF71C0E9031478
:101ED00080218161FFF7DEFA08B172B6FEE74FF4A8
:101EE0008050079007A91948FFF75EFB08B172B64A
:101EF000FEE71648FFF76CFC08B172B6FEE70B94DC
:101F00000BA912480C94FFF77DFA08B172B6FEE7F0
:101F10007020CDE90004022002900022694604945A
:101F20000A48FFF7EFFB08B172B6FEE704226946E4
:101F30000648FFF7E7FB08B172B6FEE70348FFF774
:101F4000A1FB0EB010BD0000000C00409C00002062
:101F5000FEE7FEE77047704730B5034600208C244B
:101F60000EE000BF13F8012B50400022C50702D03D
:101F700084EA500000E04008521CD2B2082AF5D38F
:101F8000491EC9B2EED230BD2DE9FF4F87B00DF129
:101F90005008DDE91F0498E8004CDDE9189C4FF07B
:101FA00055081E9DDDE91A768DF800804FF0AA08CD
:101FB0008DF801808DF8021017998DF808108DF8B2
:101FC0000C601C998DF80D101D998DF804308DF85A
:101FD00005A08DF809908DF803208DF806B08DF8D6
:101FE0000AC08DF80E108DF810008DF807E08DF8FE
:101FF0000B708DF80F5000204FEA0D0202EB4001EC
:1020000014F810304B7434F81030401C1B0A8B74D9
:102010000428F3DB19211046FFF79EFF8DF8190005
:102020000D208DF81A000A208DF81B004FF6FF7363
:10203000E02269460798FFF75FFE0BB0BDE8F08F1E
:10204000FEF792BE30B593B030216846FEF7A5F991
:1020500014210CA8FEF7A1F91E480025016841F0E3
:1020600080510160006800F0805011901A480168AA
:1020700041F4804101600068022400F48040119026
:1020800001200090000401908001CDE90640082065
:1020900008904FF4A870CDE9090404200B9068461D
:1020A000FEF7E6FF08B172B6FEE70CA90F2081E843
:1020B00031004FF4A0500F904FF480501090052144
:1020C0000CA8FEF7EBFE002801D072B6FEE713B0B5
:1020D00030BD0000403802400070004002480168F6
:1020E00041F470010160704788ED00E0F0B50268CE
:1020F000254C264D264E274F274B4FF0804CA042B3
:1021000009D0604507D0A84205D0B04203D0B842FC
:1021100001D0984204D122F0700E4A6842EA0E02C1
:10212000A0421BD0604519D0A84217D0B04215D0AC
:10213000B84213D0984211D0184DA8420ED0184D75
:10214000A8420BD0174DA84208D0174DA84205D081
:10215000164DA84202D0164DA84203D122F4407574
:10216000CA682A434D6922F080022A4302608A68C5
:10217000C2620A688262A04201D0984201D1096914
:10218000016301214161F0BD0000014000040040F5
:1021900000080040000C00400004014000400140E5
:1021A000004401400048014000180040001C00406D
:1021B0000020004010B501F01F030121046A99407E
:1021C0008C430462016A9A401143016210BD10B54C
:1021D000846842EA032224F47F440A432243826053
:1021E00010BD826822F070020A4342F0070181604C
:1021F00070470000F0B5026A22F001020262036A31
:1022000042688469124E24F073050C682C4323F055
:1022100002058B682B430D4DA84201D0B04205D179
:1022200023F00807CB683B4323F00403A84201D006
:10223000B04205D14D6922F4407215438A692A43A0
:1022400042608461496841630362F0BD000001405F
:1022500000040140F0B5026A22F010020262026A34
:10226000436884690D6824F4E64444EA05248D68D3
:1022700022F0200242EA05120F4D104EA84201D072
:10228000B04206D1CF6822F0800242EA071222F063
:102290004002A84201D0B04207D14D6923F4406307
:1022A00043EA85038D6943EA850343608461496895
:1022B00081630262F0BD00000000014000040140A3
:1022C000F0B5026A22F480720262026A4368C4694D
:1022D00022F4007224F073050C68124E2C438D68B2
:1022E00042EA05220E4DA84201D0B04206D1CF6885
:1022F00022F4006242EA072222F48062A84201D05E
:10230000B04207D14D6923F4405343EA05138D6968
:1023100043EA05134360C4614968C1630262F0BDCA
:10232000000001400004014030B5026A22F48052EE
:102330000262046A4268C3690D6823F4E64343EA13
:1023400005238D6824F4005444EA0534084DA8425E
:1023500002D0084DA84204D14D6922F4804242EADD
:1023600085124260C36149680164046230BD0000A7
:10237000000001400004014010B5036A046A24F023
:1023800001040462846924F0F00444EA021423F096
:102390000A020A438461026210BD10B5036A23F089
:1023A000100303628369046A23F4704343EA023230
:1023B00024F0A00343EA01118261016210BD10B54F
:1023C000806B0021C185C184FFF795FA10BD0168BB
:1023D0000C3151E8002F22F4907241E80023002BC9
:1023E000F5D10168143151E8002F22F0010241E8D3
:1023F0000023002BF5D1016B012909D101680C31B3
:1024000051E8002F22F0100241E80023002BF5D103
:10241000202180F83E1000210163704708B590F834
:102420003E10222901D0022008BD82684FF480535B
:102430009A4201D1016921B1816A9A421BD04AB105
:102440000AE00268816A5268C2F308020A80816A5F
:10245000891C08E0026972B10268526802F07F02CA
:102460000A70816A491C8162C18D491E0904090CE8
:10247000C18503D019E002685268F1E70168CA68B3
:1024800022F02002CA600168CA6822F48072CA6021
:1024900001684A6922F001024A61202180F83E1059
:1024A000016B012903D0FFF707FC002008BD0021C4
:1024B000016301680C3151E8002F22F0100241E85D
:1024C0000023002BF5D101680A68D20602D50A68FC
:1024D00049680091818DFFF70DFAE6E770B5044673
:1024E00000680169E26821F44051114301612169EA
:1024F000A068E26908436169114308432168CA681A
:1025000049F20C639A430243CA6020684169A26998
:1025100021F440711143416131492068884202D061
:102520003049884202D1FEF763FD01E0FEF750FD1D
:10253000E2690023192164253226B2F5004F626852
:1025400028D0A0FB0101930F9200FDF78DFE0146FC
:10255000B0FBF5F06FF01802504301EB800006EB82
:102560000010B0FBF5F000F0F002B1FBF5F002EB6B
:102570000012B1FBF5F06FF01803584301EB800037
:1025800006EB0010B0FBF5F000F00F0021681044DE
:10259000886070BDA0FB010192185B41FDF764FEED
:1025A0000146B0FBF5F00201B1FBF5F06FF0180346
:1025B000584301EB800006EBC000B0FBF5F000F0E3
:1025C000F80002EB4002B1FBF5F0584301EB80004C
:1025D00006EBC000B0FBF5F000F00700D6E7000006
:1025E000001001400014014081628285C2850021F3
:1025F0000164222280F83E2080F83C10016921B15C
:102600000168CA6842F48072CA6001684A6942F08F
:1026100001024A610068C16841F02001C1600020E8
:1026200070472DE9F041984617460E460446069D30
:1026300027E0681C25D02DB1FEF790FBA0EB080029
:10264000A8421ED920680C3050E8001F21F4D07138
:1026500040E80012002AF5D12068143050E8001F2D
:1026600021F0010140E80012002AF5D1202084F871
:102670003D0084F83E00002084F83C000320BDE8C3
:10268000F0812068006836EA000004D00020B842DB
:10269000CFD00020F3E70120F9E700000148FFF761
:1026A0002BB90000E40000200148FFF725B9000025
:1026B00028010020FEE70907090E002804DB00F1CD
:1026C000E02080F80014704700F00F0000F1E020D7
:1026D00080F8141D704700008EB0FEF74DFBFFF729
:1026E000B1FC62480024016841F08001016001688A
:1026F00001F080010091016841F001010160016871
:1027000001F001010091016841F0020101600068DF
:1027100000F002000090FFF74BFBFFF769FBFFF7AB
:10272000BFFB544852490C2501604FF4E131C0E928
:102730000114C460C0E904458461C461FFF710FA64
:1027400008B172B6FEE74B484B49443001604FF484
:102750001651C0E90114C460C0E904458461C46134
:10276000FFF7FEF908B172B6FEE74248B838FEF747
:102770005DF940480221B838FDF77BFE3D489038AE
:10278000FEF7D6FE3B484838FEF7D2FE3948002116
:102790009038FFF74BF8374804219038FFF746F898
:1027A000344800214838FFF741F8324804214838BE
:1027B000FFF73CF82F4800221146483800F062F835
:1027C0002C4801220021483800F05CF829480122F9
:1027D0002A494430FFF75AFA294DA5F110040DF1AA
:1027E000140CA07B617B227BCDE90A100C95099229
:1027F000207AE37AA27A617A8CE80F0020790DF1D1
:10280000040CE379A27961798CE80F00E0780090FC
:10281000A378627821781748FFF7B6FB207890B14B
:1028200060784FF00002B8B112480021483800F03B
:1028300029F8012200210F48483800F023F83220FF
:10284000FEF782F9CBE70B4800220A21483800F056
:1028500019F801220A21EEE706486FF00906314611
:10286000483800F00FF801223146E4E730380240E2
:1028700000100140E4000020004400402900002036
:102880001000002001F16403C92B08D2012A06D8E8
:10289000963189B222B1012A01D100688163704763
:1028A0000068416370474FF04070E1EE100A7047D6
:1028B00000000000000000000102030406070809F0
:1028C0000000000001020304E828000800000020C6
:1028D0002C000000C4010008142900082C0000206E
:1028E000A4080000E0010008000000000000000053
:1028F00000000000000000000000000000000000D8
:102900000100000010000000000000000024F4009E
:0429100000000000C3
:040000050800018965
:00000001FF
