:020000040800F2
:10000000880700202902000801230008A520000815
:10001000FD22000825060008D92300080000000082
:10002000000000000000000000000000072300089E
:1000300053070008000000000523000809230008FA
:10004000430200084302000843020008430200087C
:10005000430200084302000843020008430200086C
:10006000430200084302000843020008430200085C
:10007000430200084302000843020008430200084C
:10008000430200084302000843020008430200083C
:100090002906000843020008430200084302000842
:1000A000430200084302000843020008430200081C
:1000B000430200084302000843020008430200080C
:1000C00043020008430200084302000843020008FC
:1000D00043020008430200084302000843020008EC
:1000E00043020008430200084302000843020008DC
:1000F00043020008430200084302000843020008CC
:1001000043020008430200084302000843020008BB
:1001100043020008430200084302000843020008AB
:1001200039060008430200084302000843020008A1
:100130004302000800000000000000004302000825
:10014000430200084302000843020008430200087B
:10015000430200084302000843020008430200086B
:10016000430200084302000843020008430200085B
:1001700043020008430200080000000000000000E5
:10018000430200084302000800F002F800F03CF8C7
:100190000AA090E8000C82448344AAF10107DA45E2
:1001A00001D100F031F8AFF2090EBAE80F0013F0F8
:1001B000010F18BFFB1A43F0010318478C270000FA
:1001C000AC270000103A24BF78C878C1FAD852078B
:1001D00024BF30C830C144BF04680C6070470000C1
:1001E0000023002400250026103A28BF78C1FBD840
:1001F000520728BF30C148BF0B6070471FB502F0DF
:100200008DFB1FBD10B510BD00F0CFF81146FFF7F4
:10021000F5FF02F0BDFA00F0EDF803B4FFF7F2FFCE
:1002200003BC00F0F5F80000094880470948004782
:10023000FEE7FEE7FEE7FEE7FEE7FEE7FEE7FEE796
:10024000FEE7FEE704480549054A064B70470000F3
:10025000C5230008890100088801002088070020C4
:10026000880300208803002053EA020C00F0698014
:100270002DE9F04B4FF00006002B1FBFB3FA83F5BA
:1002800003FA05F424FA05F65E4012BF1643B2FAEB
:1002900082F502FA05F4C5F120051EBF22FA05FC1D
:1002A00044EA0C04203556EA044C4FEA144418BFC3
:1002B000641C4FF000084FF00009904271EB030CF2
:1002C00039D3002919BFB1FA81F701FA07F6B0FA5C
:1002D00080F700FA07F6C7F120071EBF20FA07FCD7
:1002E00046EA0C062037B6FBF4FCA7EB0507103FE7
:1002F00007F01F0BCBF120060CFA0BFB2CFA06F6CD
:1003000044BFB3460026202FA4BF5E464FF0000B2B
:100310005BEA060C08BF4FF0010B19EB0B09ABFBB6
:10032000027C48EB0608C01B06FB02CC0BFB03CC8F
:1003300071EB0C01C1E70B46024641464846BDE859
:10034000F08B13B54FF000004FF00001AFF30080C9
:10035000BDE81C4070474FF0000200B513469446BC
:100360009646203922BFA0E80C50A0E80C50B1F10D
:100370002001BFF4F7AF090728BFA0E80C5048BF21
:100380000CC05DF804EB890028BF40F8042B08BFBF
:10039000704748BF20F8022B11F0804F18BF00F8BB
:1003A000012B7047704770477047754600F02CF876
:1003B000AE4605006946534620F00700854618B052
:1003C00020B5FFF73FFFBDE820404FF000064FF09B
:1003D00000074FF000084FF0000B21F00701AC467A
:1003E000ACE8C009ACE8C009ACE8C009ACE8C00999
:1003F0008D46704710B50446AFF300802046BDE837
:100400001040FFF70ABF0000004870472801002095
:1004100001491820ABBEFEE726000200704770B508
:100420000546AC6B206C00F0500050BB206C40F4D3
:10043000007020642068806800F04050E8B9207E99
:10044000D8B92068C06A00F4700020B120688068C4
:1004500000F4806088B92068406820F0200021689E
:100460004860206C20F480702064206C00F4805080
:1004700018B9206C40F001002064204600F034FAE6
:100480000BE0206C00F0100018B1204600F02EFAAE
:1004900003E0A06BC16C2846884770BD70B5054667
:1004A000AC6B40202064606C40F004006064204627
:1004B00000F01CFA70BD70B50446A56B284600F02C
:1004C00014FA70BD55494A6822F440324A604A68BD
:1004D00043681A434A600268526822F480720368D3
:1004E0005A6002685368026943EA022203685A604C
:1004F0000268526822F0407203685A6002685268CB
:1005000083681A4303685A600268926822F40062A2
:1005100003689A6002689268C3681A4303689A6025
:100520003F4B826A9A4218D00268926822F0706249
:1005300003689A6002689268836A1A4303689A6043
:100540000268926822F0405203689A6002689268DA
:10055000C36A1A4303689A600BE00268926822F04B
:10056000706203689A600268926822F040520368E1
:100570009A600268926822F0020203689A60026838
:100580009368027E43EA420203689A602022125C6A
:10059000A2B10268526842F4006203685A600268BD
:1005A000526822F4604203685A6002685368426AE3
:1005B000521E43EA423203685A6005E002685268FC
:1005C00022F4006203685A600268D26A22F4700260
:1005D0000368DA620268D36A828B521E43EA0252CF
:1005E0000368DA620268926822F4007203689A6013
:1005F0000268936890F8302043EA422203689A60C8
:100600000268926822F4806203689A6002689368C4
:10061000426943EA822203689A60704700230140DE
:100620000100000F00BFFEE710B5024800F07CFBA0
:1006300010BD0000E000002010B5024800F0DEFD13
:1006400010BD0000800000200146087810381823F3
:10065000B0FBF3F20848805CC865032A05D9086836
:100660006FF30900001D886503E008686FF3090057
:100670008865886D70470000262900080146002023
:100680008A6A8B69CBB932B1012A0DD0022A03D014
:10069000032A10D10EE000BFCB6A03F08073B3F1E0
:1006A000807F00D1012007E0CB6AB3F1C07F00D189
:1006B000012001E000E000BF34E08B69B3F5005F8A
:1006C0001AD132B1012A07D0022A03D0032A11D14C
:1006D0000AE000BF01200EE0CB6A03F08073B3F1A3
:1006E000807F00D1012006E0CB6AB3F1C07F00D14A
:1006F000012000E000BF15E032B1012A05D0022A36
:1007000004D0032A0CD103E000BF00BF012008E0A1
:10071000CB6A03F08073B3F1807F00D1012000E049
:1007200000BF00BF704730B50468246824F48024FB
:1007300005682C60046863608468402C04D10468F8
:10074000A2600468E16003E00468A1600468E260FC
:1007500030BD704772B600BFFEE7000038B50246F4
:100760000020009000BF92F83C00012801D1022037
:1007700038BD012082F83C0000BF0868092816D95E
:100780001068C0680C780A3C04EB44050724AC40B0
:10079000A0431468E0600C780A3C04EB44048868C9
:1007A000A0401468E46820431468E06013E0106817
:1007B00000690C7804EB44050724AC40A04314689E
:1007C00020610C7804EB44048868A0401468246914
:1007D0002043146820614868072817D21068406BCE
:1007E0000C79641E04EB84051F24AC40A0431468FC
:1007F0006063088880B20C79641E04EB8404A04016
:100800001468646B20431468606331E048680D2805
:1008100017D21068006B0C79E41F04EB84051F24C9
:10082000AC40A04314682063088880B20C79E41FB0
:1008300004EB8404A0401468246B204314682063F4
:1008400016E01068C06A0C790D3C04EB84051F2487
:10085000AC40A0431468E062088880B20C790D3C7B
:1008600004EB8404A0401468E46A20431468E06246
:10087000194B1A4C1068A04206D10868122803D1FF
:10088000586840F480005860144C1068A0421CD195
:100890000868102802D00868112816D1586840F45A
:1008A00000005860086810280FD10D4800680D4CF2
:1008B000B0FBF4F000EB80004000009002E00098F4
:1008C000401E009000980028F9D100BF002082F857
:1008D0003C0000BF00BF4BE7002301400020014067
:1008E0003400002040420F007047704770470000FE
:1008F00070B5044600250CB9012070BD1549A06AE9
:10090000884200D000BF206C30B9204600F024F8A7
:100910000020606484F83C00206C00F0100088B96E
:10092000206C20F4885040F0020020642046FFF73D
:10093000C9FD00206064206C20F0020040F001003E
:10094000206400E0012500BF002084F83C0000BFC7
:100950002846D2E70100000F10B586B004461421E6
:1009600001A8FFF7F8FC2849206888424AD100BF57
:10097000002000902548006840F4807023490860FA
:100980000846006800F48070009000BF00BF00BF00
:10099000002000901D481438006840F004001B49F6
:1009A000143908600846006800F00400009000BF99
:1009B00000BF33200190032002900020039001A982
:1009C000134800F00FFE13481349086000204860E8
:1009D000002111488160C1604FF4806101614900CC
:1009E0004161890081614911C16100210162416257
:1009F00000F024FD08B1FFF7ADFE00BF0648A0637C
:100A0000846300BF06B010BD00200140443802409E
:100A1000000802401064024080000020F8B504463F
:100A20000D4616460020009000BF94F83C000128B7
:100A300001D10220F8BD012084F83C0000BF2068ED
:100A4000806800F00100A0B92068806840F00100D3
:100A500021688860554800685549B0FBF1F000EB0B
:100A60004000009002E00098401E0090009800288E
:100A7000F9D12068806800F48070B0F5807F05D1DE
:100A80002068806820F48070216888602068806811
:100A900000F0010000287ED0206C40F20161884304
:100AA00040F4807020642068406800F4806028B1C1
:100AB000206C20F4005040F480502064206C00F43E
:100AC0008050B0F5805F04D1606C20F00600606457
:100AD00001E00020606400BF002084F83C0000BFFB
:100AE000344F3548A16BC8633448A16B086434485F
:100AF000A16BC8646FF0220021680860206840681C
:100B000040F08060216848602068806840F4807010
:100B100021688860226802F14C0133462A46A06BA6
:100B200000F002FD786800F01F0018BB254920681E
:100B3000884213D024492068884204D1381D0068B7
:100B400000F01F0050B12149206888422BD119487C
:100B5000001D006800F01F00102824D22068806863
:100B600000F04050F8B92068806840F0804021686B
:100B7000886018E013492068884214D12068806892
:100B800000F0405078B92068806840F080402168CB
:100B9000886008E0FFE7206C40F010002064606C83
:100BA00040F001006064002044E7000034000020B1
:100BB00040420F00002301401F040008B704000852
:100BC0009D04000800200140002101400022014056
:100BD000F0B504460D461E4694F8207020688368E0
:100BE000A86800B900E000BF012F01D0022F7CD11E
:100BF00003F0806030B903F0006018B903F0805052
:100C0000002873D0C3F30161022905D9606A40F45A
:100C1000000060620120F0BD012088403060A868BB
:100C200060B9B5F800C0E86840EA4C5C206800F59F
:100C3000C07000EB0110C0F800C00FE0D5E901C0A2
:100C400040EACC00D5F80CC040EA0C00D4F800C053
:100C50000CF5C07C0CEB011CCCF80000D5F810C0E2
:100C6000206800F5C07000EB0110C0F804C0287DBA
:100C700001280ED1206800F5C07000EB011040681B
:100C800040F4807C206800F5C07000EB0110C0F8D3
:100C900004C0D079000692F806C040EA0C4092F8F1
:100CA00005C040EA0C2C10794CEA000C206800F5D5
:100CB000C07000EB0110C0F80CC0D078000692F8AC
:100CC00002C040EA0C4092F801C040EA0C2092F8C1
:100CD00000C040EA0C00D4F800C00CF5C07C0CEB5E
:100CE000011CCCF80800206801E016E00FE000F5D8
:100CF000C07000EB0110006840F0010C206800F5A6
:100D0000C07000EB0110C0F800C0002083E7606AEB
:100D100040F40010606201207DE7606A40F48020AA
:100D20006062012077E770472DE9F05F04460025F7
:100D3000206846692068D0F8049020688768206899
:100D4000D0F80CA02068D0F810B02068D0F8188037
:100D500006F00100002855D007F00100C0B10120C5
:100D60002168886007F0020018B1204600F03FFAC1
:100D70000EE007F0040010B145F4006508E007F04C
:100D8000080010B145F4805502E0204600F02EFA2C
:100D900007F48070C8B14FF480702168886007F450
:100DA000007018B1204600F024FA0EE007F48060CD
:100DB00010B145F4005508E007F4006010B145F4A7
:100DC000804502E0204600F013FA07F48030C8B1F5
:100DD0004FF480302168886007F4003018B1204655
:100DE00000F009FA0EE007F4802010B145F4004548
:100DF00008E007F4002010B145F4803502E02046F9
:100E000000F0F8F906F0080038B10AF0100020B13F
:100E100045F4007510202168C86006F0040040B158
:100E20000AF0080028B108202168C860204600F0B8
:100E3000A9F906F0020038B12068C06800F003008C
:100E400010B1204600F09FF906F0400038B10BF0D9
:100E5000100020B145F4806510202168086106F07B
:100E6000200040B10BF0080028B10820216808617B
:100E7000204600F089F906F0100038B120680069BA
:100E800000F0030010B1204600F07FF906F40030B6
:100E900040B109F0100028B11020216848602046B8
:100EA00000F074F906F4803040B109F0080028B170
:100EB000082021684860204600F09EF906F40040B2
:100EC00088B309F0040078B306F4807020B108F00C
:100ED000010008B145F0010506F4007020B108F0EA
:100EE000020008B145F0020506F4806020B108F068
:100EF000040008B145F0040506F40060A0B108F054
:100F0000700088B108F07000402817D006DC102867
:100F10000BD020280CD0302819D10CE0502810D04C
:100F2000602814D110E01DE019E045F008050FE03D
:100F300045F010050CE045F0200509E045F04005BE
:100F400006E045F0800503E045F4807500E000BF51
:100F500000BF2068806920F070002168886104204B
:100F6000216848602DB1606A284360622046FFF71F
:100F7000DAFEBDE8F09F70B504460CB9012070BDE3
:100F800094F8200010B9204600F0B0F820680068FE
:100F900040F001002168086000F026FC05460DE0E5
:100FA00000F022FC401B0A2808D9606A40F4003097
:100FB0006062052084F820000120E0E72068406896
:100FC00000F001000028EBD02068006820F002004B
:100FD0002168086000F008FC05460DE000F004FC04
:100FE000401B0A2808D9606A40F40030606205207E
:100FF00084F820000120C2E72068406800F0020069
:101000000028EBD1207E012806D12068006840F03E
:1010100080002168086005E02068006820F08000FA
:1010200021680860607E012806D12068006840F0D1
:1010300040002168086005E02068006820F040005A
:1010400021680860A07E012806D12068006840F071
:1010500020002168086005E02068006820F020007A
:1010600021680860E07E012806D12068006820F031
:1010700010002168086005E02068006840F010005A
:1010800021680860207F012806D12068006840F0B0
:1010900008002168086005E02068006820F008006A
:1010A00021680860607F012806D12068006840F050
:1010B00004002168086005E02068006820F0040052
:1010C00021680860D4E90201084321690843616985
:1010D00008436168491E08432168C86100206062B6
:1010E000012084F82000002049E7000010B586B0F8
:1010F0000446142101A8FFF72EF91F4920688842F1
:1011000038D100BF002000901C48006840F00070FB
:101110001A4908600846006800F00070009000BF9F
:1011200000BF00BF0020009014481038006840F055
:1011300001001249103908600846006800F00100FB
:10114000009000BF00BF4FF4C050019002200290F9
:1011500001200390032004900920059001A908486C
:1011600000F040FA00221146142000F0C7FB1420C2
:1011700000F0B4FB06B010BD0064004040380240EF
:10118000000002407047704770477047704770B565
:10119000044694F82000012822D1022084F820007F
:1011A0002068006820F001002168086000F01CFB46
:1011B00005460DE000F018FB401B0A2808D9606ABC
:1011C00040F400306062052084F82000012070BDEA
:1011D0002068406800F001000028EBD16062F6E76B
:1011E000606A40F4002060620120F0E770477047B9
:1011F000704770477047704770470000F8B5044665
:10120000002000908C4800684FF41651B0FBF1F7B5
:10121000A56D2E6894F85C1008208840304098B185
:101220002068006800F0040070B12068006820F0B9
:1012300004002168086094F85C1008208840A860C9
:10124000606D40F00100606594F85C1001208840FA
:10125000304068B12068406900F0800040B194F8E7
:101260005C1001208840A860606D40F0020060655D
:1012700094F85C1004208840304068B12068006811
:1012800000F0020040B194F85C1004208840A8608F
:10129000606D40F00400606594F85C101020884098
:1012A000304078B32068006800F0080050B394F82C
:1012B0005C1010208840A8602068006800F480203E
:1012C00080B12068006800F4002028B9206CC8B103
:1012D0002046216C884715E0A06C98B12046A16C8F
:1012E00088470FE02068006800F4807028B9206803
:1012F000006820F0080021680860206C10B12046CA
:10130000216C884794F85C102020884030400028E9
:1013100065D02068006800F0100000285FD094F8C5
:101320005C1020208840A86094F83500052828D15A
:101330002068006820F01600216808602068406975
:1013400020F0800021684861206C08B9A06C28B1A9
:101350002068006820F008002168086094F85C109C
:101360003F208840A860012084F8350000BF00209D
:1013700084F8340000BF206D10B12046216D8847ED
:10138000F8BD2068006800F4802080B12068006803
:1013900000F4002028B9606C10B12046616C8847C9
:1013A0001DE0E06BD8B12046E16B884717E020686C
:1013B000006800F4807068B92068006820F01000B0
:1013C00021680860012084F8350000BF002084F8FF
:1013D000340000BFE06B10B12046E16B8847606DC0
:1013E00038B3606D00F00100F0B1052084F83500DD
:1013F0002068006820F001002168086000BF0098A4
:10140000401C0090B84200D905E02068006800F058
:1014100001000028F3D100BF012084F8350000BF8F
:10142000002084F8340000BFE06C10B12046E16C6D
:10143000884700BFA4E70000340000202DE9F041F8
:101440000446002500F0D0F9074614B90120BDE894
:10145000F081606A00B100BF022084F8350000BF4F
:10146000002084F8340000BF2068006820F00100EC
:10147000216808600AE000F0B7F9C01B052805D90B
:1014800020206065032084F83500E0E720680068CC
:1014900000F001000028EED12068056821480540D1
:1014A000D4E901010843E1680843216908436169FF
:1014B0000843A1690843E1690843216A08430543D9
:1014C000606A042803D1D4E90B010843054320686E
:1014D00005602068456925F00705606A0543606A74
:1014E00004280DD1A06A0543E06A48B12046FFF701
:1014F000C5F828B140206065012084F83500A6E7D2
:10150000206845612046FFF79FF8064694F85C1076
:101510003F208840B06000206065012084F83500DD
:10152000002094E73F8010F02DE9F04704460D4677
:1015300016461F464FF00008D4F8589000BF94F8A4
:101540003400012802D10220BDE8F087012084F890
:10155000340000BF94F83500012825D1022084F81A
:101560003500002060653B46324629462046FFF79D
:10157000DAF894F85C103F208840C9F80800206829
:10158000006840F0160021680860206C28B12068CF
:10159000006840F00800216808602068006840F09A
:1015A00001002168086006E000BF002084F83400D4
:1015B00000BF4FF002084046C6E7000070B5044681
:1015C00000F012F906462546681C10B10448007860
:1015D000054400BF00F008F9801BA842FAD370BD93
:1015E00030000020F8B502460B46002500240020FC
:1015F0000021D6E0012606FA01F51E6806EA050478
:10160000AC4274D11E7906F00306012E04D01E7977
:1016100006F00306022E13D190684F000326BE4049
:10162000B0434F00DE68BE403043906050680126F2
:101630008E40B0431E79C6F300168E403043506092
:101640001E7906F00306032E09D0D0684F0003264A
:10165000BE40B0434F009E68BE403043D0601E790C
:1016600006F00306022E13D1CF0802F1200656F829
:1016700027004E07F70E0F26BE40B0434F07FF0E60
:101680001E69BE403043CF0802F1200646F827000D
:1016900010684F000326BE40B0431E7906F00306D3
:1016A0004F00BE40304310605E6806F44036002EA6
:1016B00076D000BF002600963C4E366846F4804641
:1016C0003A4F3E603E46366806F48046009600BFBC
:1016D00000BF374E8F0856F827008E07370F0F26AA
:1016E000BE40B043334EB24202D1002624E057E060
:1016F000314EB24201D101261EE0304EB24201D13C
:10170000022619E02E4EB24201D1032614E02D4EDE
:10171000B24201D104260FE02B4EB24201D1052680
:101720000AE02A4EB24201D1062605E0284EB24216
:1017300001D1072600E008268F073F0FBE40304347
:101740001B4E8F0846F82700224E3068A0435E6883
:1017500006F4801606B120431E4E3060361D3068F8
:10176000A0435E6806F4001606B12043194E361DEC
:101770003060184E361F3068A0435E6806F40036AD
:1017800006B12043134E361F3060361F3068A04329
:101790005E6806F4803606B120430E4E083E306087
:1017A000491C1029FFF426AFF8BD00004438024060
:1017B00008380140000002400004024000080240D6
:1017C000000C0240001002400014024000180240C9
:1017D000001C0240083C0140024613690B400BB15B
:1017E000012000E0002070470148006870470000B9
:1017F000280000200348006803490978084401498B
:1018000008607047280000203000002010B50D4807
:10181000006840F400700B4908600846006840F416
:10182000806008600846006840F48070086003200B
:1018300000F0A2F80F2000F007F800F02BF80020CD
:1018400010BD0000003C024070B504460E48007810
:101850004FF47A71B1FBF0F00C490968B1FBF0F577
:10186000284600F005FC08B1012070BD102C07D2FD
:1018700000222146501E00F041F80548046001E0B6
:101880000120F2E70020F0E73000002034000020C3
:101890002C00002008B500BF002000900E48006812
:1018A00040F480400C4908600846006800F480401D
:1018B000009000BF00BF00BF00200090081F00681C
:1018C00040F08050091F08600846006800F0805012
:1018D000009000BF00BF08BD4438024001460846E2
:1018E000002809DB00F01F0301229A4043099B00F6
:1018F00003F1E023C3F8002100BF70472DE9F05F3A
:1019000080460D461646002700F068FD074639461A
:101910002A46334601F00700C0F1070ABAF1040F66
:1019200002D94FF0040A01E0C0F1070AD14600F1E4
:10193000040ABAF1070F02D24FF0000A01E0A0F149
:10194000030AD4464FF0010A0AFA09FAAAF1010A79
:101950000AEA020A0AFA0CFA4FF0010B0BFA0CFB26
:10196000ABF1010B0BEA030B4AEA0B04214640469C
:1019700000F03CFDBDE8F09F00BF00F00702064B01
:1019800019684FF6FF031940044B0B4343EA022149
:10199000014B196000BF70470CED00E00000FA0534
:1019A00070B504460D460CB9012070BD584800685A
:1019B00000F00700A84209D255490D70084600689A
:1019C00000F00700A84201D00120EEE7207800F0E7
:1019D000020002281DD1207800F00400042805D15F
:1019E0004C48006840F4E0504A490860207800F014
:1019F0000800082805D14748006840F46040454980
:101A000008604448006820F0F000A168084341499C
:101A10000860207800F00100A8B36068012807D1B1
:101A20003C4808380068C0F34040B8B90120BCE722
:101A30006068022802D06068032807D1354808385A
:101A40000068C0F3406048B90120AEE7314808386B
:101A50000068C0F3400008B90120A6E72D480068DF
:101A600020F00300616808432A490860FFF7BCFEC4
:101A7000064609E0FFF7B8FE801B41F28831884234
:101A800002D9032091E707E02248006800F00C002B
:101A90006168B0EB810FEDD11D48006800F00700D0
:101AA000A84209D91A490D700846006800F00700DD
:101AB000A84201D0012078E7207800F00400042833
:101AC00007D11448006820F4E050E1680843114948
:101AD0000860207800F00800082808D10D48006848
:101AE00020F46040216940EAC1000A49086000F022
:101AF00019F808490968C1F30311074A515CC84045
:101B00000649086006480068FFF79EFE00204CE783
:101B1000003C0240083802402E2900083400002012
:101B20002C0000202DE9F047002400250026A146C6
:101B30002548006800F00C0020B1042805D00828D2
:101B40003AD105E0DFF8849039E0DFF8849036E0A0
:101B50001D48001F006800F03F041B48001F00687C
:101B600000F4800078B11A481749091F0968C1F3C9
:101B70008811A0FB01700146224600233846FEF77B
:101B800073FB05460EE011480F49091F0968C1F3B0
:101B90008811A0FB01700146224600233846FEF75B
:101BA00063FB05460848001F0068C0F30140401C65
:101BB0004600B5FBF6F902E0DFF8109000BF00BF69
:101BC0004846BDE8F0870000083802400024F400D1
:101BD00000127A00F8B504460CB90120F8BD20784F
:101BE00000F00100002874D0F948006800F00C00F3
:101BF00004280DD0F648006800F00C00082813D126
:101C0000F348001F006800F48000B0F5800F0BD18E
:101C1000EF4808380068C0F34040002859D0606899
:101C2000002856D10120D9E700BF6068B0F5803F99
:101C300008D1E7480838006840F48030E4490839A2
:101C400008601EE06068B0F5A02F0DD1E0480838AC
:101C5000006840F48020DE490839086008460068C2
:101C600040F4803008600CE0D9480838006820F45F
:101C70008030D749083908600846006820F4802081
:101C8000086000BF606890B1FFF7AEFD054606E052
:101C9000FFF7AAFD401B642801D903209EE7CC482A
:101CA00008380068C0F340400028F1D011E0FFF789
:101CB0009BFD054606E0FFF797FD401B642801D910
:101CC00003208BE7C24808380068C0F34040002872
:101CD000F1D1207800F0020002285FD1BC480068F2
:101CE00000F00C0058B1BA48006800F00C00082859
:101CF0001CD1B748001F006800F48000B0B9B44898
:101D000008380068C0F3400020B1E068012801D025
:101D1000012063E7AE480838006820F0F800216928
:101D200040EAC100AA490839086037E0E06800B31A
:101D30000120A8490860FFF757FD054606E0FFF7B8
:101D400053FD401B022801D9032047E7A04808386B
:101D50000068C0F340000028F1D09D4808380068B2
:101D600020F0F800216940EAC1009949083908606B
:101D700014E0002097490860FFF736FD054606E0AD
:101D8000FFF732FD401B022801D9032026E79048C7
:101D900008380068C0F340000028F1D1207800F036
:101DA000080008282CD16069A8B101208A49086080
:101DB000FFF71AFD054606E0FFF716FD401B022857
:101DC00001D903200AE782486C300068C0F3400064
:101DD0000028F1D014E000207F490860FFF704FDDF
:101DE000054606E0FFF700FD401B022801D903204D
:101DF000F4E677486C300068C0F340000028F1D169
:101E0000207800F00400042870D100277048383092
:101E1000006800F0805090B900BF002000906C482E
:101E20003830006840F08050694938310860084611
:101E3000006800F08050009000BF00BF0127674895
:101E4000006800F48070B0B96448006840F48070A5
:101E500062490860FFF7C8FC054606E0FFF7C4FCCE
:101E6000401B022801D90320B8E65C48006800F452
:101E700080700028F2D000BFA068012808D1544823
:101E80006830006840F001005149683108601DE089
:101E9000A06805280DD14E486830006840F0040065
:101EA0004B49683108600846006840F0010008604E
:101EB0000CE047486830006820F001004449683170
:101EC00008600846006820F00400086000BFA068B1
:101ED000A8B1FFF789FC054609E0FFF785FC401B28
:101EE00041F28831884202D9032077E626E038485B
:101EF00068300068C0F340000028EED013E0FFF720
:101F000073FC054608E0FFF76FFC401B41F2883187
:101F1000884201D9032061E62D4868300068C0F38B
:101F200040000028EFD1012F07D129483830006840
:101F300020F0805026493831086000BFA069002891
:101F400045D02348006800F00C0008285DD0A06947
:101F5000022845D100201F490866FFF745FC0546C9
:101F600006E0FFF741FC401B022801D9032035E6BB
:101F7000174808380068C0F340600028F1D1D4E960
:101F800007010843616A40EA81110122A06AC2EB9D
:101F9000500041EA00412C20005D41EA00600C49FC
:101FA000091F086001200B490866FFF71DFC054664
:101FB00006E0FFF719FC401B022801D903200DE6BB
:101FC000034808380068C0F340600028F1D049E0B9
:101FD0000838024000004742800E4742007000402F
:101FE000002021490866FFF7FFFB054606E0FFF7E2
:101FF000FBFB401B022801D90320EFE51B480068CA
:10200000C0F340600028F2D12CE0A069012800D183
:10201000E4E51648001D0668A069012820D006F4F2
:102020008001E06981421BD106F03F01206A8142B4
:1020300016D147F6C0703040616AB0EB811F0FD1F6
:1020400006F440310122A06AC2EB5000B1EB004F10
:1020500006D106F070612C20005DB1EB006F01D05D
:102060000120BBE50020B9E50000474200380240EE
:1020700070B504462546681EB0F1807F01D301206B
:102080000FE0681E4FF0E02148610F214FF0FF3054
:1020900000F0ACF900204FF0E021886107200861D2
:1020A000002070BD00BFFEE71FB50020009001902A
:1020B0000290039029482A4908604FF48030486014
:1020C000002127488160012101610176002180F80B
:1020D0002010C162234981620021C1600421C161D5
:1020E000012180F830104161FEF702FC08B1FEF7D3
:1020F00031FB0A20009001200190002002906946E7
:102100001748FEF72BFB08B1FEF724FB0B200090CD
:102110000220019069461248FEF720FB08B1FEF745
:1021200019FB0E2000900320019069460C48FEF731
:1021300015FB08B1FEF70EFB0F2000900420019064
:1021400069460748FEF70AFB08B1FEF703FB1022B9
:1021500005490348FEF762FC1FBD00000020014056
:10216000380000200100000F0801002010B50E48C3
:102170000E4908600420486000210C488160C1605D
:102180004FF4502101614FF4A0014161002101761B
:1021900041768176C17601774177FEF7ECFE08B192
:1021A000FEF7D8FA10BD000000640040E0000020F7
:1021B00008B500BF002000900A48006840F4800085
:1021C000084908600846006800F48000009000BFDD
:1021D00000BF002211463820FFF790FB3820FFF7A0
:1021E0007DFB08BD3038024000B587B0142102A83D
:1021F000FEF7B1F800BF002001903B48006840F0B6
:102200000400394908600846006800F004000190A5
:1022100000BF00BF00BF002001900846006840F0EA
:10222000800008600846006800F08000019000BF50
:1022300000BF00BF002001900846006840F0010088
:1022400008600846006800F00100019000BF00BF70
:1022500000BF002001900846006840F002000860BE
:102260000846006800F00200019000BF00BF00BFF8
:10227000002001900846006840F008000860084609
:10228000006800F00800019000BF00BF4FF4475005
:102290000290002003900120049002A91348FFF748
:1022A000A1F940F203100290002003900120049055
:1022B00002A90F48FFF796F94CF643000290002060
:1022C00003900120049002A90A48FFF78BF904202B
:1022D0000290002003900120049002A90648FFF715
:1022E00081F907B000BD000030380240000802400C
:1022F0000000024000040240000C024000BFFEE764
:1023000000BFFEE77047704710B5FFF773FA10BDC6
:1023100000B593B0302107A8FEF71DF8142102A8DC
:10232000FEF719F800BF002001902448006840F033
:102330008050224908600846006800F080500190F3
:1023400000BF00BF00BF002001901D48006840F49E
:1023500080401B4908600846006800F480400190F6
:1023600000BF00BF012007900004089002200D90DC
:1023700041050E9108210F914FF4A871109102218F
:1023800011910421129107A8FFF724FC08B1FEF770
:10239000E1F90F20029002200390002004904FF4F6
:1023A000A05005904FF480500690052102A8FFF739
:1023B000F7FA08B1FEF7CEF913B000BD403802407D
:1023C000007000400348006840F470000149086054
:1023D0007047000088ED00E000BFFEE7024800689B
:1023E000C0F30220704700000CED00E010B500289B
:1023F00004DB0A07130E054A135406E00A07140EFD
:10240000034A00F00F031B1FD45410BD00E400E08A
:1024100018ED00E010B501219948FFF7DDF948B942
:102420009848007810B90020974908700020954915
:10243000087004E0012094490870924908704FF434
:1024400000618F48FFF7C8F948B99048007810B983
:1024500000208F49087000208C49087004E001209A
:102460008B4908708949087002218548FFF7B4F943
:1024700048B98848007810B90020874908700020C2
:102480008449087004E0012083490870814908707C
:1024900040217B48FFF7A0F948B98048007810B97F
:1024A00000207F49087000207C49087004E001206A
:1024B0007B4908707949087040217A48FFF78CF908
:1024C00048B97948007810B9002078490870002090
:1024D0007549087004E00120744908707249087059
:1024E00004217348FFF778F948B97248007810B9A9
:1024F00000207149087000206E49087004E0012036
:102500006D4908706B49087080216648FFF764F9CF
:1025100048B96A48007810B900206949087000205D
:102520006649087004E00120654908706349087035
:102530004FF480715B48FFF74FF948B96148007864
:1025400010B900206049087000205E49087004E05E
:1025500001205D4908705B4908704FF48051514873
:10256000FFF73AF948B95948007810B9002058499E
:10257000087000205549087004E001205449087093
:10258000524908704FF400514648FFF725F948B901
:102590005048007810B900204F49087000204D497C
:1025A000087004E001204C4908704A4908704FF453
:1025B00080413348FFF710F948B94848007810B90E
:1025C00000204749087000204449087004E00120B9
:1025D00043490870414908704FF400412848FFF70B
:1025E000FBF848B93F48007810B900203E49087010
:1025F00000203C49087004E001203B49087039493B
:1026000008704FF480713948FFF7E6F848B9384848
:10261000007810B90020374908700020344908704C
:1026200004E00120334908703149087002212F4825
:10263000FFF7D2F848B93048007810B900202F4988
:10264000087000202C49087004E001202B49087014
:102650002949087001212548FFF7BEF848B92848E4
:10266000007810B90020274908700020244908701C
:1026700004E00120234908702149087010BD0000C2
:102680000004024018000020000000201900002073
:10269000010000201A000020020000201B00002082
:1026A00003000020000802401C000020040000205D
:1026B000000C02401D000020050000201E0000202C
:1026C000060000201F00002007000020200000203E
:1026D0000800002021000020090000202200002026
:1026E0000A000020230000200B0000200000024010
:1026F000240000200C000020250000200D000020F8
:10270000260000200E0000200FB5002004E000216C
:102710004DF82010411CC8B20428F8DB002022E04C
:10272000002202EB8002184B33F81220009911446A
:102730000091012202EB800233F81220019911442A
:102740000191022202EB800233F812200299114417
:102750000291032202EB800233F812200399114404
:102760000391411CC8B20428DADB002008E05DF8C0
:102770002010C1F38F01054A22F81010411CC8B285
:102780000428F4DB0FBD0000080100201000002029
:10279000FFF73CF8FFF7BCFDFFF726FDFFF708FD4C
:1027A000FFF782FCFFF7E2FC0648FEF7F0FC08E0CA
:1027B000FFF7AAFFFFF72EFE00F006F83220FEF723
:1027C000FDFEF5E7E000002000B589B0002006908E
:1027D00005908DF8200040F2012003900220079020
:1027E0003D4800783D49097840EA41003C49097874
:1027F00040EA81003B49097840EAC1003A4909783A
:1028000040EA01103949097840EA4110384909780D
:1028100040EA81103749097840EAC110C0B28DF80A
:102820000400354800783549097840EA41003449C8
:10283000097840EA81003349097840EAC100324909
:10284000097840EA01103149097840EA41103049DD
:10285000097840EA8110C0B28DF805006B4601AAE4
:1028600003A92C48FEF7B4F908B1FDF773FF40F255
:1028700002200390082007902748008800128DF856
:102880000400254800788DF8050023484088001290
:102890008DF80600204880788DF807001E48808853
:1028A00000128DF808001C4800798DF809001A48BC
:1028B000C08800128DF80A00174880798DF80B0047
:1028C0006B4601AA03A91348FEF782F908B1FDF788
:1028D00041FF09B000BD0000000000200100002001
:1028E000020000200300002004000020050000205A
:1028F000060000200700002008000020090000203A
:102900000A0000200B0000200C0000200D00002019
:102910000E000020E0000020100000204FF040706A
:10292000E1EE100A704700061016000610160000AF
:10293000000000000000010203040607080900006F
:1029400000000102030400006829000800000020C4
:1029500038000000C4010008A02900083800002049
:1029600050070000E0010008000000000000000027
:102970000000000000000000000000000000000057
:102980000101010101010101010101010101010038
:102990000000000010000000010000000024F4000E
:040000050800018965
:00000001FF
